:020000040800F2
:10000000F0060020890100084B1600089511000831
:10001000491600088F020008A3160008000000001F
:100020000000000000000000000000004F16000863
:1000300091020008000000004D160008511600084B
:10004000A3010008A3010008A3010008A301000800
:10005000A3010008A3010008A3010008A3010008F0
:10006000A3010008A3010008A3010008A3010008E0
:10007000A3010008A3010008A3010008A3010008D0
:10008000A3010008A3010008A3010008A3010008C0
:10009000A3010008A3010008A3010008A3010008B0
:1000A000A3010008A3010008A3010008A3010008A0
:1000B000A3010008A3010008A3010008A301000890
:1000C000A3010008A3010008A3010008A301000880
:1000D000A3010008A3010008A3010008A301000870
:1000E000A3010008A3010008A301000800F002F822
:1000F00000F03AF80AA090E8000C82448344AAF188
:100100000107DA4501D100F02FF8AFF2090EBAE885
:100110000F0013F0010F18BFFB1A43F0010318473B
:100120003820000058200000103A24BF78C878C159
:10013000FAD8520724BF30C830C144BF04680C60ED
:10014000704700000023002400250026103A28BF35
:1001500078C1FBD8520728BF30C148BF0B60704739
:100160001FB51FBD10B510BD00F058F81146FFF7C0
:10017000F7FF01F0A7FA00F076F803B4FFF7F2FFFB
:1001800003BC00F07DF8000009488047094800479B
:10019000FEE7FEE7FEE7FEE7FEE7FEE7FEE7FEE737
:1001A000FEE7FEE704480549054A064B7047000094
:1001B000A1160008ED000008F0000020F006002065
:1001C000F0020020F00200204FF0000200B51346BC
:1001D00094469646203922BFA0E80C50A0E80C5067
:1001E000B1F12001BFF4F7AF090728BFA0E80C5018
:1001F00048BF0CC05DF804EB890028BF40F8042B11
:1002000008BF704748BF20F8022B11F0804F18BF7D
:1002100000F8012B7047704770477047754600F033
:100220002BF8AE4605006946534620F00700854688
:1002300018B020B5FFF7B6FFBDE820404FF000062C
:100240004FF000074FF000084FF0000B21F00701BE
:10025000AC46ACE8C009ACE8C009ACE8C009ACE801
:10026000C0098D46704710B50446AFF300802046A4
:10027000BDE81040FFF781BF004870478C000020A8
:1002800001491820ABBEFEE7260002007047FEE7DA
:100290007047000070B5044600F00CF90546601C7C
:1002A00002D004480078044400F004F9401BA04246
:1002B000FAD370BD280000202DE9F84FDFF8B8917F
:1002C0000024A9F1040B23460F2709F1040AABF11E
:1002D000040EC9E00125A5402A40AA427DD1674EFF
:1002E000D1F804C0ACEB0608B44532D014DCBCF144
:1002F000030F3AD009DCBCF1000F2AD0BCF1010F8A
:100300001CD0BCF1020F31D11DE0BCF1110F17D090
:10031000BCF1120F2AD119E0B8F5881F19D006DCFC
:10032000B8F5803F15D0B8F5801F1FD111E0B8F5A2
:10033000001F0ED0B8F5041F18D10AE0CB6815E0F5
:10034000CB681B1D12E0CB6808330FE0CB680C3381
:100350000CE08B682BB1012B4FF0080303D04561F3
:1003600004E0042302E0056100E00023FF2A01D835
:10037000064601E000F104064FEA840501D9A5F123
:100380002005D6F8008007FA05FC28EA0C0803FAD5
:1003900005F548EA0508C6F800804D68ED0062D50D
:1003A000374DAE6946F00106AE61AD6924F0030633
:1003B00005F001050095334D06EB050CDCF80850FF
:1003C000A607360F07FA06F825EA0805DFF8B88011
:1003D000404503D14FF0000817E044E0DFF8AC805F
:1003E000404502D14FF001080FE0DFF8A4804045FE
:1003F00002D14FF0020808E0DFF89880404502D1B2
:100400004FF0030801E04FF0040808FA06F848EA44
:100410000508CCF808804D68D9F80060ED024D461B
:1004200001D5164300E096432E604D68DAF800606F
:10043000AD02554601D5164300E096432E604D6847
:10044000DBF80060AD035D4601D5164300E096433E
:100450002E604D68DEF80060ED03754601D5164349
:1004600000E096432E60641C0D682A46E5407FF448
:1004700031AFBDE8F88F0000080401400000111002
:10048000001002400000014000080140000C014043
:100490000010014000140140C26821EA02030A4032
:1004A00043EA0241016170470AB1016170470904E2
:1004B000FBE700000148806870470000280000202A
:1004C00070B5040025D094F83D00002520B984F8CB
:1004D0003C50204600F032FB242084F83D00206888
:1004E000016821F0010101602068016841F40041C8
:1004F00001602068016821F40041016000F06CFC9B
:100500004D4A6168914201D84C4900E04C4988420B
:1005100001D2012070BD4B492368B0FBF1F15E6848
:1005200026F03F060E435E606368934206D94FF49F
:10053000967359434FF47A73B1FBF3F12368491C66
:100540001E6A26F03F06314319626168914210D855
:100550004900401EB0FBF1F2521CC2F30B02042A08
:1005600001D2042022E0B0FBF1F0401CC0F30B00EC
:100570001CE0A268F2B301EBC10303EB0116431EBA
:10058000B3FBF6F35B1C43F480431B0549D092B3E5
:1005900001EBC10202EB0111401EB0FBF1F0401C67
:1005A000C0F30B0040F4804040F400402168CA6969
:1005B0004CF6FF739A431043C861D4E90710014316
:1005C0002068026822F0C00211430160D4E90301EF
:1005D00001432068826848F2FF339A4311438160E7
:1005E000D4E9050108432168CA6822F0FF021043DC
:1005F000C86001E00EE016E02068016841F00101EA
:1006000001602564202084F83D00256384F83E5075
:10061000002070BD01EB4106431EB3FBF6F35B1CEB
:10062000B3E70120C2E701EB4101401EB0FBF1F04E
:10063000401CC0F30B00B7E7A086010080841E00B9
:1006400000093D0040420F002DE9FF4F81B089466F
:100650000446FFF72FFF054694F83D004FF00008D1
:1006600020287DD11923012250492046009500F011
:10067000A1FE002874D194F83C00012870D001201C
:1006800084F83C0020680168C90703D1016841F083
:10069000010101602068016821F4006101602420EB
:1006A00084F83D00002626644148E0624FF0011BBB
:1006B00020272068016841F48071016000950022C4
:1006C00059462046049B00F075FE50B12068006832
:1006D000C00502D54FF400702064032005B0BDE8CA
:1006E000F08F216809F0FE000861FFF7E3FE216842
:1006F000054648694969C0F34000C1F380214FF0C5
:10070000A00A0FE0FFF7D6FE411B0498814200D8F3
:1007100008B984F83DA0216848694969C0F34000E0
:10072000C1F3802194F83D20A02A02D008B9002905
:10073000E8D084F83D7020684169C943890716D420
:10074000016841F4007101602068416980691923E2
:10075000012216492046009500F02CFEB8B900E0B1
:1007600021E084F83D7084F83C600020B6E7016821
:1007700041F40071016021686FF4806048611923C1
:1007800001220A492046009500F014FE08B101201C
:10079000A4E7039808F1010880458AD384F83D70E6
:1007A00084F83C60F3E7022098E7000002001000A4
:1007B0000000FFFF2DE9F84F1F4690468A46044689
:1007C000DDF82890FFF776FE054694F83D002028D6
:1007D0007FD11923012240492046009500F0EAFD0F
:1007E000002876D194F83C00012872D0012084F8CA
:1007F0003C0020680168C90703D1016841F001018C
:1008000001602068016821F400610160212084F802
:100810003D00102084F83E0000262664C4F82480A1
:100820006785608D20852D48E0622B464A465146FB
:10083000204600F0C7FC90B92068416980690090AB
:1008400036E02A464946204600F092FE50B1206C20
:10085000042804D12068016841F40071016001207E
:10086000BDE8F88F606A216800780861606A401C02
:100870006062618D491E6185218D491E89B2218585
:1008800022685369DB435B070BD451B100781061D8
:10089000606A401C6062608D401E6085208D401E35
:1008A00020852A464946204600F058FD0028CED132
:1008B000208D0028C5D154F83D0B016841F400712A
:1008C0000160202004F81E09E67766770020C7E75C
:1008D000FFE70220C4E70000020010000000FFFF55
:1008E0002DE9FF4F83B00025DDE910799A46934644
:1008F0000446DDF848800095FFF7DCFD064694F8D5
:100900003D0020287CD119230122884920460096E9
:1009100000F050FD0028F5D194F83C0001286FD07C
:10092000012084F83C0020680168C90703D10168F0
:1009300041F0010101602068016821F4006101605B
:10094000222084F83D00402084F83E002564676240
:10095000A4F82A90608D20857548E062CDE9008674
:1009600053465A462046049900F07AFC00287CD170
:10097000208DDFF8C091202768B1012814D002280B
:10098000206801681ED041F48061016020684169DF
:1009900080690090BCE0206841698169009101682C
:1009A00041F400710160B3E02068016821F48061C6
:1009B000016072B62068416981690091016841F463
:1009C00000710AE041F40061016072B6206841697B
:1009D00081690091016821F48061016062B697E04D
:1009E000032865D801280CD0022843464FF00002A6
:1009F0004946204600960BD000F0DCFCA8BB0CE07A
:100A000091E032464146204600F07AFD68BB72E034
:100A100000F0D0FC48BB72B633E02068016821F4D6
:100A20008061016072B620680069616A0870606A5E
:100A3000401C6062208D401E2085608D401E6085B8
:100A40003D4846F2A8110068B0FBF1F0C0EBC000D1
:100A500000EB80000090401E009007D020684069A5
:100A6000C04340070DD50098F5E727E044F8305F14
:100A70006773A573206940F02000206162B625737A
:100A80001CE02068016841F4007101602068006981
:100A9000616A0870606A401C6062218D491E218570
:100AA000618D491E618562B621680969017026E081
:100AB00032464146204600F023FD18B1012007B020
:100AC000BDE8F08F20680069616A0870606A401CA8
:100AD0006062208D401E81B22185608D401E608540
:100AE00020684269D243520712D4032903D1016816
:100AF00021F48061016020680069616A0870606AA1
:100B0000401C6062208D401E2085608D401E6085E7
:100B1000208D00287FF464AF84F83D7084F83E5047
:100B200084F83C50CBE70220C9E700000200100027
:100B30000000FFFF040001003400002010B586B063
:100B40000021009101910291039100680F498842B0
:100B50001AD10F4CA06940F00800A061A069694655
:100B600000F008000490C0200090122001900320A3
:100B700003900848FFF7A0FBE06940F40010E06133
:100B8000E06900F40010049006B010BD005400406D
:100B900000100240000C01400248816802781144B4
:100BA0008160704728000020074810B5016841F0B7
:100BB00010010160032000F067F80F2000F006F834
:100BC00000F024F8002010BD0020024070B50D4D4B
:100BD00004464FF47A712878B1FBF0F00A490968AD
:100BE000B1FBF0F000F0C2FA48B9102C07D2002295
:100BF0002146501E00F028F800206C6070BD0120D6
:100C000070BD000028000020340000200C4808B50A
:100C1000816941F001018161816901F00101009167
:100C2000C16941F08051C161C06900F080500090FD
:100C30000448416821F0E06141F00071416008BD65
:100C40000010024000000140F0B40E4B1B680C463F
:100C5000C3F30223C3F10705042D00D90425191D90
:100C6000072901D2002300E0DB1E012606FA05F168
:100C7000491E214099409E40761E16403143F0BCEB
:100C800000F010BD0CED00E0064900F00702086816
:100C90004FF6FF03184040EA0220034A1043086061
:100CA000704700000CED00E00000FA052DE9F04768
:100CB0000F46050061D0434E306800F00700B8428F
:100CC00009D2306820F0070038433060306800F007
:100CD0000700B84251D128683B4C810712D5400724
:100CE00003D5606840F4E06060602878000703D5B1
:100CF000606840F4605060606068A96820F0F000AF
:100D0000084360602878C00728D06868012810D0A0
:100D10002168022810D0890700292EDA616821F0A5
:100D2000030101436160FFF7C5FB804641F288394A
:100D30000DE021688903EFE78901EDE7FFF7BAFBD2
:100D4000A0EB0801494502D90320BDE8F08760689F
:100D5000696800F00C00B0EB810FEFD1306800F053
:100D60000700B8420BD9306820F0070038433060E4
:100D7000306800F00700B84201D00120E5E728788C
:100D8000400705D56068E96820F4E06008436060CA
:100D90002878000706D56068296920F4605040EA89
:100DA000C100606000F028F86168084AC1F30311CF
:100DB000515CC8400649086006480068FFF706FF16
:100DC0000020C2E70020024000100240402100083D
:100DD000340000202C0000200448054900684968C0
:100DE000044AC1F30221515CC8407047340000201E
:100DF00000100240502100080F4A516801F00C0019
:100E0000042803D0082803D00C4870470C487047CA
:100E10000C48C1F38343C903C05C0AD55168094A31
:100E2000C1F34041921E515C054A5043B0FBF1F0C2
:100E300070470549484370470010024000127A008D
:100E40000024F4003021000800093D002DE9F84F8E
:100E5000040070D02078C04DC00749D06868C0F346
:100E60008100012807D06868C0F38100022809D1F9
:100E70006868C00306D52868800339D560680028F3
:100E8000E7D035E06068B0F5803F0BD010B1B0F529
:100E9000A02F11D0286820F480302860286820F422
:100EA000802002E0286840F480302860606890B1BB
:100EB000FFF700FB06460AE0286840F4802028601F
:100EC000F0E700BFFFF7F6FA801B642873D82868A4
:100ED0008003F7D50CE0FFF7EDFA064605E000BF0A
:100EE000FFF7E8FA801B6428F0D828688003F7D45D
:100EF00020789A4E80074FF001094FF0000839D54D
:100F0000686810F00C0F07D06868C0F381000228F1
:100F100009D16868C00306D42868800714D5206901
:100F2000012808D110E02069B0B1C6F80090FFF7A1
:100F3000C1FA074605E00AE1FFF7BCFAC01B022828
:100F4000C4D828688007F7D52868616920F0F800C0
:100F500040EAC10028600DE0C6F80080FFF7AAFA59
:100F6000074604E0FFF7A6FAC01B022823D828682A
:100F70008007F7D4207800072CD57948A169D9B12A
:100F8000C0F80090FFF796FA074604E0FFF792FAE0
:100F9000C01B02280FD8686A8007F7D571484FF444
:100FA000FA510068B0FBF1F0009000BF0098411EBC
:100FB0000091FAD20EE080E0C0F80080FFF77AFAE4
:100FC000074604E0FFF776FAC01B022875D8686A66
:100FD0008007F7D42078400760D5E8690027C00073
:100FE00008D4E86940F08050E861E869012700F022
:100FF000805000905C480168C90513D4016883469D
:1010000041F480710160FFF755FA824606E000BFA7
:10101000FFF750FAA0EB0A0064284ED8DBF8000076
:10102000C005F5D5E06801280AD008B1052813D01D
:10103000286A20F001002862286A20F0040002E0FB
:10104000286A40F001002862E06841F2883B98B1CC
:10105000FFF730FA82460BE0286A40F0040028626D
:10106000EEE700BFFFF726FAA0EB0A0159455AD870
:10107000286A8007F6D50CE0FFF71CFA824605E0E7
:10108000FFF718FAA0EB0A0159454CD8286A8007E7
:10109000F6D41FB1E86920F08050E861E06988B3B8
:1010A0006968C1F38101022944D00228C6F8608032
:1010B00004D0FFF7FFF9044638E034E0FFF7FAF90F
:1010C000074604E0FFF7F6F9C01B02282BD8286872
:1010D0008001F7D4206AB0F5803F05D16868A16827
:1010E00020F4003008436860D4E9080108436968C7
:1010F00021F4741108436860C6F86090FFF7DAF9CC
:10110000044606E025E000BFFFF7D4F9001B0228E3
:1011100009D828688001F7D51BE000BFFFF7CAF99E
:10112000001B022802D90320BDE8F88F286880013F
:10113000F4D40EE00128F7D06868226A00F4803108
:10114000914204D1616A00F47010884201D00120FC
:10115000EAE70020E8E700000010024000004242F9
:1011600080044242340000200070004010B5401E50
:10117000B0F1807F01D3012010BD4FF0E024606109
:101180000F21601700F08EFA0020A0610720206177
:10119000002010BDFEE701684A69D24352050FD412
:1011A0006FF480624A61002140F8301F20224273B0
:1011B0008173026942F004020261017301207047E9
:1011C00000207047F8B50446C06A1E460D46174613
:1011D000082807D0012805D010F5803F02D0206BE9
:1011E000122804D12068016841F48071016013461F
:1011F00000224FF001112046009600F0DBF840B1CC
:1012000020680068C00502D54FF4007020640320F8
:10121000F8BD2069B0F5804F0ED00620216800EAA5
:10122000D51040F0F000086133463A460B4920469D
:1012300000F008F978B902E005F0FE0000E0E8B23D
:1012400021680861054933463A46891F204600F067
:10125000F9F80028DCD00120F8BD000008000100EA
:101260002DE9F84F0446006889460B9D01689846B1
:10127000174641F4806101602068016841F4807183
:10128000016000954FF0011B0022594620460A9B41
:1012900000F090F84FF4007A40B120680068C00573
:1012A00001D5C4F840A00320BDE8F88F216809F0FB
:1012B000FE0008612B46284920460A9A00F0C2F831
:1012C000F0BB20684169806900902A4620460A994F
:1012D00000F04EF940B1206C04283AD12068016832
:1012E00041F40071016034E0FEB2B8F1010F09D0A1
:1012F0002168380A08612A4620460A9900F038F920
:101300000028E8D1206806612A4620460A9900F0A4
:101310002FF90028DFD12068016841F48071016055
:1013200000950022594620460A9B00F043F8002809
:10133000B3D1216809F0FF0040F00100086100E02E
:1013400007E02B46044920460A9A00F07BF8002863
:10135000AAD00120A8E700000200010070B51646DF
:101360000D4604461EE02046FFF715FF08B1012098
:1013700070BD681C16D0FFF79DF8801BA84200D8EE
:1013800085B920684069C04340070BD5002044F868
:10139000300F20216173A073216941F02001216188
:1013A0002073E4E720684069C0434007DBD4002095
:1013B00070BD00002DE9F047984617460D460446DB
:1013C000C1F30746DDF820902AE000BFB8F1FF3FE7
:1013D00026D0FFF76FF8A0EB0901414502D8B8F11C
:1013E000000F1DD12068012E16D0806925EA00006B
:1013F0000004000C12D00020B84211D1002044F8A3
:10140000300F20216173A073216941F02001216117
:1014100020730120BDE8F0874069E7E70120EBE792
:101420002068012E0AD0806925EA00000004000C23
:1014300006D00020B842C9D00020EBE74069F3E7AE
:101440000120F7E72DE9F047984616460D46044679
:101450004FF000094FF0200AC1F3074723E020684E
:101460004069C043400515D42068016841F400710B
:10147000016021686FF480604861C4F8309084F89E
:101480003DA084F83E90216C41F00401216484F871
:101490003C9021E0701C06D0FFF70CF8A0EB080090
:1014A000B04203D816B1012F1FD021E02068012FD0
:1014B00015D0806925EA00000004000C18D000BF98
:1014C00044F8309F84F80DA084F80E90216941F013
:1014D0002001216184F80C900120BDE8F08740696B
:1014E00025EA00000004000CEAD12068406901E010
:1014F0002068806925EA00000004000CAFD1ECE709
:101500002DE9F041002590460E460446202728E0AC
:101510004069C043C0060CD454F8301B6FF0100073
:10152000486144F810596777A577206A20622577CB
:1015300014E0FEF7BFFFA0EB0800B04200D886B968
:1015400020684069C04340060BD544F8305F67739C
:10155000A573206940F02000206125730120BDE8BB
:10156000F08120684169C9434906D1D40020F6E7DB
:1015700070B516460D4604461EE02046FFF70BFEEA
:1015800008B1012070BD681C16D0FEF793FF801BC8
:10159000A84200D885B920684069C04300060BD531
:1015A000002044F8300F20216173A073216941F0BD
:1015B000200121612073E4E720684069C0430006F0
:1015C000DBD4002070BD000070B586B000241C483C
:1015D0000094019402940394816941F010018161A7
:1015E000816901F010010491816941F0200181615C
:1015F000816901F020010491816941F00401816158
:10160000816901F004010491816941F0080181615F
:1016100080690C4E00F008004FF400550490002241
:1016200029463046FEF740FF01200095CDE9010430
:101630000220039069463046FEF73EFE06B070BDBC
:101640000010024000100140FEE7FEE770477047BF
:10165000FFF7A2BA30B58FB028216846FEF7B4FD77
:1016600014210AA8FEF7B0FD01252804CDE9005099
:10167000002407946846FFF7E9FB08B172B6FEE75D
:101680000F200A90CDE90B540D9400210AA80E9466
:10169000FFF70CFB002801D072B6FEE70FB030BD9B
:1016A0007047FEE70907090E002804DB00F1E0207F
:1016B00080F80014704700F00F0000F1E02080F87F
:1016C000141D7047FFF770FAFFF7C4FFFFF77CFFA8
:1016D000114810494FF480420160104941600021D7
:1016E0008160C0E9031241618161C1610162FEF75D
:1016F000E7FE08B172B6FEE700F012F84FF47A7414
:1017000000F05EF800F09CF800F0DEF82046FEF7EE
:10171000C1FDF5E70054004038000020A08601001C
:101720007CB5C8230522D0212348FEF78DFF68B180
:10173000224E31244FF4005529463046FEF7ACFEC8
:101740001420FEF7A7FD641EE4B2F5D26B208DF8DD
:10175000040000254FF47A748DF80550022301AA85
:10176000D02115480094FFF725F819208DF80400C2
:1017700007208DF80500022301AAD0210E4800940D
:10178000FFF718F81B208DF804008DF80550022390
:1017900001AAD02108480094FFF70CF81C208DF80E
:1017A00004008DF80550022301AAD02102480094BC
:1017B000FFF700F87CBD0000380000200010014059
:1017C000F0B585B00020039004906422062103A8A0
:1017D0008DE8070001233B22D0211748FFF780F84E
:1017E000BDF80C00154C40BA2080BDF80E104EBA62
:1017F0006680BDF810104DBAA58000F0C9FA6FF0F0
:101800000D073A4600F04DFC00F088F8E0603046E5
:1018100000F0BEFA3A4600F044FC00F07FF8206188
:10182000284600F0B5FA3A4600F03BFC00F076F8A6
:10183000606105B0F0BD000038000020000000200D
:10184000F0B585B00020039004906422062103A81F
:101850008DE8070001234322D0211848FFF740F804
:10186000BDF80C00164C40BAE080BDF80E104EBA20
:101870002681BDF810104DBA658100F089FA114F2C
:1018800000223B4600F02CF900F048F8A0613046F9
:1018900000F07EFA00223B4600F022F900F03EF80C
:1018A000E061284600F074FA00223B4600F018F987
:1018B00000F034F8206205B0F0BD000038000020D0
:1018C00000000020006060401FB5002003906422EB
:1018D000022103A88DE8070001234122D0210A48F4
:1018E000FEF7FEFFBDF80C0000F052FA0022074B95
:1018F00000F0F6F8064A074B00F042F800F00EF848
:10190000054948621FBD00003800002000407540B6
:10191000A4703D0AD74342400000002021F000425D
:10192000A2F16052B2F5801F01F0004328BFD2F14E
:101930007F6C0BD95FEA001C43EAC20242EB507095
:1019400018BF704728BF20F001007047B2F5801F14
:10195000BCBF184670474FEA410C1CF5001F02D26D
:10196000084600F067BB70B500F025FA000000895A
:10197000FFF7F6BF4FF00040A0F580007047000071
:1019800010B591EA030F48BF83F0004300F1708265
:10199000841A71EB030C05D2121943EB0C03001BE4
:1019A00061EB0C01DFF824E14FEA1154A4EB135C66
:1019B0001EEA430F18BF9EEA445F73D023EA0E036A
:1019C000DCF1200E21EA045143F4801332D322FAD1
:1019D0000CFE10EB0E0023FA0CFE41EB0E01CCF1D5
:1019E000200E03FA0EFE10EB0E0051F10001B1F5CE
:1019F000801FCCF1200E32D201EB045112FA0EF20C
:101A0000BDE8104058BF7047401C38BF5FEA420233
:101A100018BF7047002814BF20F0010041F10001F9
:101A20004FEA410313F5001F38BF7047A1F1C041D1
:101A300000F00FBA012A43EB0302ACF1200CDCF1F9
:101A40001F0E32BF4FF0000E23FA0CF310EB030011
:101A500041EB0451B4EB115FD0D0A1EB045101F57F
:101A6000801149085FEA300001EB04510ED350F1B8
:101A7000000038BF12FA0EFE08D1BDE81040C9E7D9
:101A8000401C38BF5FEA4202CAD1C3E7BDE810403C
:101A90004FEA410313F5001F38BF7047A1F1C04161
:101AA00000F0D7B99EEA445F08D011EA5E0FBDE8A6
:101AB000104004BF01F0004100207047BDE8104015
:101AC00070B500F078F900BF64FBBE3E0000E0FF97
:101AD00002494FF0000000F0B2BA00BF0000F87FEA
:101AE0002DE9C04130B4DFF8A0C23CEA111418BFA0
:101AF0003CEA131400F0EC8081EA03051CEA11149F
:101B000044EAD57418BF1CEA131500F0C780A4EB93
:101B100005044FF0004545EAC12145EAC32341EAE7
:101B2000505143EA525304F17F74994204F5003452
:101B30004FEAC0204FEAC22208BF904200F09C80CA
:101B40004FEA13650FF24016765D4FEA134506FB28
:101B500005F7C7F1807706FB07F74FEAD737A7FBF2
:101B600003687642C8F58038A7FB06CE38BFA8F1D7
:101B7000010807FB08E64FF0000EA6FB028CE6FB0F
:101B800003CEDCF1000CCEF1004E38BFAEF1010EF9
:101B9000A6FB0C584FF000074FF00005E6FB0E8740
:101BA000A1FB08C6A0FB07CE16EB0E0645F100050B
:101BB000E1FB076515F1E04E7EBFA4F580345FEAD6
:101BC00046066D4116F1800745F100054FEA1727DB
:101BD0004FEA066647EA0567A6F1DE46B6F1805F82
:101BE0004FEA15251FD9384624F0010C05EBC471C6
:101BF000BCF1FE6F01EB0C1102D8F0BCBDE8008116
:101C000024425CBF01F5801E9EEAC47F02D4F0BC72
:101C1000BDE80081244238D4F0BCA1F1C041BDE848
:101C2000004100F016B94FEAD22242EA43524FEA8D
:101C3000D323A7FB02864FEAD02040EA415007FB9E
:101C400003661EEA0E0F4FEAD12105FB026658BF5C
:101C5000A6EB0056B6EB00564FEA520E4EEAC37E94
:101C600018EB0E0E56EB530EBDD518EB02085E4175
:101C70007F1C55F10005B6E74FF480154FF00007C3
:101C80004FF000064FF00008ADE7F0BC4FF0000049
:101C900001F1C04101F00041BDE8008111EA0C1FD3
:101CA0000CEA131500D00CE013EA0C1F00F025809D
:101CB0004FF00000F0BC81EA030101F00041BDE8F3
:101CC0000081F0BCBDE8004181EA030100F0C1B829
:101CD000F0BCBDE8004170B500F06DF8097EFC3E37
:101CE00000F007B881EA03014FF0000001F0004165
:101CF000704781EA030100F0ACB8F0BCBDE80041D8
:101D00004FF0000021497047FFFDFBF9F7F5F4F2B1
:101D1000F0EEEDEBE9E8E6E4E3E1E0DEDDDBDAD886
:101D2000D7D5D4D3D1D0CFCDCCCBCAC8C7C6C5C4E4
:101D3000C2C1C0BFBEBDBCBBBAB9B8B7B6B5B4B3FB
:101D4000B2B1B0AFAEADACABAAA9A8A8A7A6A5A4E6
:101D5000A3A3A2A1A09F9F9E9D9C9C9B9A999998AA
:101D60009797969595949393929191908F8F8E8E4D
:101D70008D8C8C8B8B8A89898888878786858584DA
:101D800084838382828181800000FF070000F87FC6
:101D9000B0FA80F310FA03F10AD0C3F11D0303F582
:101DA00080634FEA41504FEA035202EBD121704762
:101DB0004FF0000070470EF1020E2EF0030E5EF899
:101DC000046B364205D4012A43EB030515F5001FC9
:101DD00012D8012841EB010C1CF5001F0CD80ED1C4
:101DE0004FEAD17C15F5001F0CEB4C0C0CF1020CEA
:101DF00008BF4CEBD37C04E04FF0080C01E04FEA45
:101E0000D37C0CEB4C0526FA05F606F00706B6F176
:101E1000040C06D20EEB860CBDE870404CF0010CB1
:101E20006047DFE80CF0090B02024FF000414FF071
:101E30000000A1F5002170BD19461046012851EBA4
:101E4000010418BFD4F5001484BF002001F0004144
:101E500070BD0808A0F500114FEA3101704700007D
:101E600010B591EA030F48BF83F000433FF590ADF2
:101E7000841A71EB030C07D212198CF0004C43EB5F
:101E80000C03001B61EB0C01DFF8A4E14FEA1154D5
:101E9000A4EB135C1EEA430F18BF9EEA445F00F0F8
:101EA000B08023EA6E03524221EA0451C3EB6E0371
:101EB00038BF5B1EDCF1200E25D322FA0CFE10EB9E
:101EC0000E0043FA0CFE41EB0E01CCF1200E03FA9A
:101ED0000EFE10EB0E0051F10001CCF1200E29D4C2
:101EE00012FA0EF201EB0451BDE8104058BF7047E2
:101EF000401C1CBFB2F1004F704700280CBF491CAA
:101F000020F00100704712EB020E43EB030218BFF2
:101F10004FF0010E4EEA4202ACF1200CDCF11E0E35
:101F200054D943FA0CFE10EB0E0051F1FF31CCF105
:101F30001E0ED5D50EF1010E12FA0EFE404141EBF8
:101F4000010101EB445C5FEA5C5C10D910EBDE70D0
:101F500001EB045138BFBEF1004FBDE8104018BF7F
:101F6000704700280CBF491C20F00100704730D298
:101F70004FEAD42C11F5001124F400641BD0B1FAFF
:101F800081F20B3AA41AA41ED2F12003914030FA38
:101F900003F31943904001EBCC71002C01EB045189
:101FA000BDE81040A8BF704701F1C0414FF00000EC
:101FB00001F000417047B0FA80F310FA03F100D14C
:101FC00010BDE41A173C4805C90AE4E701EB0451C7
:101FD00010BD491001EB0451BDE810404FEA30003C
:101FE00002E04FF0000170474A0008BF0042F8D0FD
:101FF000B2F5001F28BF704701F000414FF000000C
:1020000070479EEA445F07D011EA5E0FBDE81040BA
:1020100004BF002100207047BDE8104070B5FFF7F5
:10202000CAFE00BF40DFF63E83F000411046704715
:102030000000E0FFFF2141EAD050C00570470CF0DE
:102040000F03092B08BF082000F059800A2B0BD082
:10205000082B18BF704708BF1CF0400F0AD04FF084
:1020600000004FF0000170471CF0400F18BF4FF008
:10207000004070471CF0100F08D020F0704300F0B3
:102080007F4242EAD3014FEA4370704700F060405C
:1020900021F07F4242EA000201F07F4040EA727084
:1020A00070474FF0FF0C4CF4E06C1CEA11531CBF5E
:1020B0009CEA030C9445C2BFDA4201EB025170471F
:1020C000002B0DD0BCF1000F0FD0002A01F0004111
:1020D000A4BF41F0E04141F07F614FF00000704744
:1020E00001F000414FF00000704750EA01334FF01B
:1020F0009B0C18BF4CF0806C7FF4EAAC70471CF46A
:10210000801F11D01CF4E02F03D06FEACC314900BE
:1021100070474FF04050EFF3008222F0704242EAE5
:10212000000282F3008870474FF000007047010200
:1021300002030405060708090A0B0C0D0E0F101008
:102140000000000000000000010203040607080967
:1021500000000000010203047821000800000020B4
:102160003800000028010008B021000838000020D5
:10217000B806000044010008000000000000000054
:10218000000000000000000000000000000000004F
:10219000000000000000000000000000000000003F
:1021A00001000000100000000000000000127A0092
:04000005080000ED02
:00000001FF
