:020000040800F2
:1000000000070020890100085B160008991100080C
:10001000591600088F020008B316000800000000FF
:100020000000000000000000000000005F16000853
:1000300091020008000000005D160008611600082B
:10004000A3010008A3010008A3010008A301000800
:10005000A3010008A3010008A3010008A3010008F0
:10006000A3010008A3010008A3010008A3010008E0
:10007000A3010008A3010008A3010008A3010008D0
:10008000A3010008A3010008A3010008A3010008C0
:10009000A3010008A3010008A3010008A3010008B0
:1000A000A3010008A3010008A3010008A3010008A0
:1000B000A3010008A3010008A3010008A301000890
:1000C000A3010008A3010008A3010008A301000880
:1000D000A3010008A3010008A3010008A301000870
:1000E000A3010008A3010008A301000800F002F822
:1000F00000F03AF80AA090E8000C82448344AAF188
:100100000107DA4501D100F02FF8AFF2090EBAE885
:100110000F0013F0010F18BFFB1A43F0010318473B
:10012000882C0000A82C0000103A24BF78C878C1A1
:10013000FAD8520724BF30C830C144BF04680C60ED
:10014000704700000023002400250026103A28BF35
:1001500078C1FBD8520728BF30C148BF0B60704739
:100160001FB51FBD10B510BD00F058F81146FFF7C0
:10017000F7FF01F0D5FC00F076F803B4FFF7F2FFCB
:1001800003BC00F07DF8000009488047094800479B
:10019000FEE7FEE7FEE7FEE7FEE7FEE7FEE7FEE737
:1001A000FEE7FEE704480549054A064B7047000094
:1001B000B1160008ED000008000100200007002033
:1001C00000030020000300204FF0000200B513469A
:1001D00094469646203922BFA0E80C50A0E80C5067
:1001E000B1F12001BFF4F7AF090728BFA0E80C5018
:1001F00048BF0CC05DF804EB890028BF40F8042B11
:1002000008BF704748BF20F8022B11F0804F18BF7D
:1002100000F8012B7047704770477047754600F033
:100220002BF8AE4605006946534620F00700854688
:1002300018B020B5FFF7B6FFBDE820404FF000062C
:100240004FF000074FF000084FF0000B21F00701BE
:10025000AC46ACE8C009ACE8C009ACE8C009ACE801
:10026000C0098D46704710B50446AFF300802046A4
:10027000BDE81040FFF781BF00487047A000002094
:1002800001491820ABBEFEE7260002007047FEE7DA
:100290007047000070B5044600F00CF90546601C7C
:1002A00002D004480078044400F004F9401BA04246
:1002B000FAD370BD040000202DE9F84FDFF8B891A3
:1002C0000024A9F1040B23460F2709F1040AABF11E
:1002D000040EC9E00125A5402A40AA427DD1674EFF
:1002E000D1F804C0ACEB0608B44532D014DCBCF144
:1002F000030F3AD009DCBCF1000F2AD0BCF1010F8A
:100300001CD0BCF1020F31D11DE0BCF1110F17D090
:10031000BCF1120F2AD119E0B8F5881F19D006DCFC
:10032000B8F5803F15D0B8F5801F1FD111E0B8F5A2
:10033000001F0ED0B8F5041F18D10AE0CB6815E0F5
:10034000CB681B1D12E0CB6808330FE0CB680C3381
:100350000CE08B682BB1012B4FF0080303D04561F3
:1003600004E0042302E0056100E00023FF2A01D835
:10037000064601E000F104064FEA840501D9A5F123
:100380002005D6F8008007FA05FC28EA0C0803FAD5
:1003900005F548EA0508C6F800804D68ED0062D50D
:1003A000374DAE6946F00106AE61AD6924F0030633
:1003B00005F001050095334D06EB050CDCF80850FF
:1003C000A607360F07FA06F825EA0805DFF8B88011
:1003D000404503D14FF0000817E044E0DFF8AC805F
:1003E000404502D14FF001080FE0DFF8A4804045FE
:1003F00002D14FF0020808E0DFF89880404502D1B2
:100400004FF0030801E04FF0040808FA06F848EA44
:100410000508CCF808804D68D9F80060ED024D461B
:1004200001D5164300E096432E604D68DAF800606F
:10043000AD02554601D5164300E096432E604D6847
:10044000DBF80060AD035D4601D5164300E096433E
:100450002E604D68DEF80060ED03754601D5164349
:1004600000E096432E60641C0D682A46E5407FF448
:1004700031AFBDE8F88F0000080401400000111002
:10048000001002400000014000080140000C014043
:100490000010014000140140C26821EA02030A4032
:1004A00043EA0241016170470AB1016170470904E2
:1004B000FBE700000148806870470000040000204E
:1004C00070B5040025D094F83D00002520B984F8CB
:1004D0003C50204600F034FB242084F83D00206886
:1004E000016821F0010101602068016841F40041C8
:1004F00001602068016821F40041016000F06EFC99
:100500004D4A6168914201D84C4900E04C4988420B
:1005100001D2012070BD4B492368B0FBF1F15E6848
:1005200026F03F060E435E606368934206D94FF49F
:10053000967359434FF47A73B1FBF3F12368491C66
:100540001E6A26F03F06314319626168914210D855
:100550004900401EB0FBF1F2521CC2F30B02042A08
:1005600001D2042022E0B0FBF1F0401CC0F30B00EC
:100570001CE0A268F2B301EBC10303EB0116431EBA
:10058000B3FBF6F35B1C43F480431B0549D092B3E5
:1005900001EBC10202EB0111401EB0FBF1F0401C67
:1005A000C0F30B0040F4804040F400402168CA6969
:1005B0004CF6FF739A431043C861D4E90710014316
:1005C0002068026822F0C00211430160D4E90301EF
:1005D00001432068826848F2FF339A4311438160E7
:1005E000D4E9050108432168CA6822F0FF021043DC
:1005F000C86001E00EE016E02068016841F00101EA
:1006000001602564202084F83D00256384F83E5075
:10061000002070BD01EB4106431EB3FBF6F35B1CEB
:10062000B3E70120C2E701EB4101401EB0FBF1F04E
:10063000401CC0F30B00B7E7A086010080841E00B9
:1006400000093D0040420F002DE9FF4F81B089466F
:100650000446FFF72FFF054694F83D004FF00008D1
:1006600020287DD11923012250492046009500F011
:10067000A9FE002874D194F83C00012870D0012014
:1006800084F83C0020680168C90703D1016841F083
:10069000010101602068016821F4006101602420EB
:1006A00084F83D00002626644148E0624FF0011BBB
:1006B00020272068016841F48071016000950022C4
:1006C00059462046049B00F07DFE50B1206800682A
:1006D000C00502D54FF400702064032005B0BDE8CA
:1006E000F08F216809F0FE000861FFF7E3FE216842
:1006F000054648694969C0F34000C1F380214FF0C5
:10070000A00A0FE0FFF7D6FE411B0498814200D8F3
:1007100008B984F83DA0216848694969C0F34000E0
:10072000C1F3802194F83D20A02A02D008B9002905
:10073000E8D084F83D7020684169C943890716D420
:10074000016841F4007101602068416980691923E2
:10075000012216492046009500F034FEB8B900E0A9
:1007600021E084F83D7084F83C600020B6E7016821
:1007700041F40071016021686FF4806048611923C1
:1007800001220A492046009500F01CFE08B1012014
:10079000A4E7039808F1010880458AD384F83D70E6
:1007A00084F83C60F3E7022098E7000002001000A4
:1007B0000000FFFF2DE9FF4F83B00025DDE9107930
:1007C0009A4693460446DDF848800095FFF772FE8E
:1007D000064694F83D0020287CD11923012288493F
:1007E0002046009600F0EEFD0028F5D194F83C007C
:1007F00001286FD0012084F83C0020680168C907F7
:1008000003D1016841F0010101602068016821F411
:1008100000610160222084F83D00402084F83E0001
:1008200025646762A4F82A90608D20857548E0628F
:10083000CDE9008653465A462046049900F0C4FC90
:1008400000287CD1208DDFF8C091202768B10128D5
:1008500014D00228206801681ED041F48061016034
:100860002068416980690090BCE020684169816925
:100870000091016841F400710160B3E020680168F3
:1008800021F48061016072B620684169816900913C
:10089000016841F400710AE041F40061016072B640
:1008A0002068416981690091016821F480610160DB
:1008B00062B697E0032865D801280CD00228434689
:1008C0004FF000024946204600960BD000F07AFD1A
:1008D000A8BB0CE091E032464146204600F018FEED
:1008E00068BB72E000F06EFD48BB72B633E0206872
:1008F000016821F48061016072B620680069616A54
:100900000870606A401C6062208D401E2085608DEA
:10091000401E60853D4846F2A8110068B0FBF1F02A
:10092000C0EBC00000EB80000090401E009007D09C
:1009300020684069C04340070DD50098F5E727E0DF
:1009400044F8305F6773A573206940F02000206190
:1009500062B625731CE02068016841F400710160F3
:1009600020680069616A0870606A401C6062218DBD
:10097000491E2185618D491E618562B6216809691C
:10098000017026E032464146204600F0C1FD18B114
:10099000012007B0BDE8F08F20680069616A087027
:1009A000606A401C6062208D401E81B22185608D8E
:1009B000401E608520684269D243520712D4032941
:1009C00003D1016821F48061016020680069616AD7
:1009D0000870606A401C6062208D401E2085608D1A
:1009E000401E6085208D00287FF464AF84F83D7040
:1009F00084F83E5084F83C50CBE70220C9E7000061
:100A0000020010000000FFFF0400010010000020A1
:100A10002DE9FF4F83B09A46DDE9119793460446CE
:100A2000DDF84080FFF746FD054694F83D0020289C
:100A30007FD11923012240492046009500F0C2FCD5
:100A4000002876D194F83C00012872D0012084F867
:100A50003C0020680168C90703D1016841F0010129
:100A600001602068016821F400610160212084F8A0
:100A70003D00402084F83E0000262664C4F824800F
:100A8000A4F82A90608D20852C48E062CDE900759D
:100A900053465A462046049900F014FC70B930E0E1
:100AA0002A463946204600F06BFD58B1206C0428D8
:100AB00004D12068016841F400710160012007B091
:100AC000BDE8F08F606A216800780861606A401CA8
:100AD0006062218D491E89B22185628D521E628518
:100AE00022685369DB435B070BD469B1007810615E
:100AF000606A401C6062208D401E2085608D401E13
:100B00006085208D0028CBD12A463946204600F04A
:100B10002DFC0028CAD154F83D0B016841F4007146
:100B20000160202004F81E09E67766770020C6E7FA
:100B3000FFE70220C3E70000020010000000FFFFF3
:100B400010B586B0002100910191029103910068D7
:100B50000F4988421AD10F4CA06940F00800A061EB
:100B6000A069694600F008000490C020009012209F
:100B70000190032003900848FFF79EFBE06940F4D2
:100B80000010E061E06900F40010049006B010BDB0
:100B90000054004000100240000C014002488168EF
:100BA000027811448160704704000020074810B5A6
:100BB000016841F010010160032000F067F80F2088
:100BC00000F006F800F024F8002010BD00200240DC
:100BD00070B50D4D04464FF47A712878B1FBF0F0F2
:100BE0000A490968B1FBF0F000F0C2FA48B9102CCC
:100BF00007D200222146501E00F028F800206C6029
:100C000070BD012070BD0000040000201000002015
:100C10000C4808B5816941F001018161816901F0E9
:100C200001010091C16941F08051C161C06900F0CA
:100C3000805000900448416821F0E06141F000716B
:100C4000416008BD0010024000000140F0B40E4BAE
:100C50001B680C46C3F30223C3F10705042D00D91A
:100C60000425191D072901D2002300E0DB1E0126FF
:100C700006FA05F1491E214099409E40761E164015
:100C80003143F0BC00F02ABD0CED00E0064900F055
:100C9000070208684FF6FF03184040EA0220034AA3
:100CA00010430860704700000CED00E00000FA05FA
:100CB0002DE9F0470F46050061D0434E306800F043
:100CC0000700B84209D2306820F00700384330608E
:100CD000306800F00700B84251D128683B4C8107CA
:100CE00012D5400703D5606840F4E0606060287862
:100CF000000703D5606840F4605060606068A968D0
:100D000020F0F000084360602878C00728D06868A9
:100D1000012810D02168022810D0890700292EDA76
:100D2000616821F0030101436160FFF7C3FB804666
:100D300041F288390DE021688903EFE78901EDE789
:100D4000FFF7B8FBA0EB0801494502D90320BDE835
:100D5000F0876068696800F00C00B0EB810FEFD19C
:100D6000306800F00700B8420BD9306820F0070067
:100D700038433060306800F00700B84201D00120ED
:100D8000E5E72878400705D56068E96820F4E06069
:100D9000084360602878000706D56068296920F458
:100DA000605040EAC100606000F028F86168084ABD
:100DB000C1F30311515CC840064908600648006849
:100DC000FFF706FF0020C2E70020024000100240AB
:100DD000F42C0008100000200800002004480549F9
:100DE00000684968044AC1F30221515CC840704759
:100DF0001000002000100240042D00080F4A516826
:100E000001F00C00042803D0082803D00C487047D8
:100E10000C4870470C48C1F38343C903C05C0AD532
:100E20005168094AC1F34041921E515C054A504342
:100E3000B0FBF1F07047054948437047001002408D
:100E400000127A000024F400E42C000800093D00A0
:100E50002DE9F84F040070D02078C04DC00749D06C
:100E60006868C0F38100012807D06868C0F381007A
:100E7000022809D16868C00306D52868800339D5DF
:100E800060680028E7D035E06068B0F5803F0BD09F
:100E900010B1B0F5A02F11D0286820F48030286060
:100EA000286820F4802002E0286840F48030286020
:100EB000606890B1FFF7FEFA06460AE0286840F441
:100EC00080202860F0E700BFFFF7F4FA801B642859
:100ED00073D828688003F7D50CE0FFF7EBFA0646D5
:100EE00005E000BFFFF7E6FA801B6428F0D8286809
:100EF0008003F7D420789A4E80074FF001094FF015
:100F0000000839D5686810F00C0F07D06868C0F386
:100F10008100022809D16868C00306D428688007C8
:100F200014D52069012808D110E02069B0B1C6F8B5
:100F30000090FFF7BFFA074605E00AE1FFF7BAFAAB
:100F4000C01B0228C4D828688007F7D528686169C3
:100F500020F0F80040EAC10028600DE0C6F80080EB
:100F6000FFF7A8FA074604E0FFF7A4FAC01B02281F
:100F700023D828688007F7D4207800072CD5794833
:100F8000A169D9B1C0F80090FFF794FA074604E0D0
:100F9000FFF790FAC01B02280FD8686A8007F7D5C0
:100FA00071484FF4FA510068B0FBF1F0009000BFB7
:100FB0000098411E0091FAD20EE080E0C0F8008057
:100FC000FFF778FA074604E0FFF774FAC01B02281F
:100FD00075D8686A8007F7D42078400760D5E8693B
:100FE0000027C00008D4E86940F08050E861E86953
:100FF000012700F0805000905C480168C90513D4B7
:101000000168834641F480710160FFF753FA82461C
:1010100006E000BFFFF74EFAA0EB0A0064284ED8A6
:10102000DBF80000C005F5D5E06801280AD008B15A
:10103000052813D0286A20F001002862286A20F0D1
:10104000040002E0286A40F001002862E06841F2F2
:10105000883B98B1FFF72EFA82460BE0286A40F0F1
:1010600004002862EEE700BFFFF724FAA0EB0A01B4
:1010700059455AD8286A8007F6D50CE0FFF71AFAC6
:10108000824605E0FFF716FAA0EB0A0159454CD855
:10109000286A8007F6D41FB1E86920F08050E86123
:1010A000E06988B36968C1F38101022944D002284C
:1010B000C6F8608004D0FFF7FDF9044638E034E05C
:1010C000FFF7F8F9074604E0FFF7F4F9C01B022820
:1010D0002BD828688001F7D4206AB0F5803F05D16D
:1010E0006868A16820F4003008436860D4E908010A
:1010F0000843696821F4741108436860C6F8609079
:10110000FFF7D8F9044606E025E000BFFFF7D2F963
:10111000001B022809D828688001F7D51BE000BF12
:10112000FFF7C8F9001B022802D90320BDE8F88F99
:1011300028688001F4D40EE00128F7D06868226A9C
:1011400000F48031914204D1616A00F47010884249
:1011500001D00120EAE70020E8E70000001002408B
:101160000000424280044242100000200070004013
:1011700010B5401EB0F1807F01D3012010BD4FF0AB
:10118000E02460610F21601700F0A8FA0020A06140
:1011900007202061002010BDFEE701684A69D243A4
:1011A00052050FD46FF480624A61002140F8301F6D
:1011B000202242738173026942F0040202610173CA
:1011C00001207047002070472DE9F84F0446006861
:1011D00089460B9D01689846174641F4806101607D
:1011E0002068016841F48071016000954FF0011B97
:1011F0000022594620460A9B00F0E4F84FF4007A9A
:1012000040B120680068C00501D5C4F840A00320A3
:10121000BDE8F88F216809F0FE0008612B462849D7
:1012200020460A9A00F016F9F0BB206841698069EF
:1012300000902A4620460A9900F0A2F940B1206C9D
:1012400004283AD12068016841F40071016034E05B
:10125000FEB2B8F1010F09D02168380A08612A46A8
:1012600020460A9900F08CF90028E8D12068066130
:101270002A4620460A9900F083F90028DFD1206829
:10128000016841F4807101600095002259462046B2
:101290000A9B00F097F80028B3D1216809F0FF00FD
:1012A00040F00100086100E007E02B4604492046B9
:1012B0000A9A00F0CFF80028AAD00120A8E7000081
:1012C000020001002DE9F843044600680D46DDE9FF
:1012D000089701689846164641F4807101604B46B4
:1012E00000224FF001112046009700F06BF848B142
:1012F00020680068C00502D54FF400702064032008
:10130000BDE8F883216805F0FE0008613B464A46C7
:101310001549204600F09EF888B920684169806927
:1013200000903A464946204600F02AF948B1206C20
:10133000042804D12068016841F400710160012093
:10134000DEE7F5B2B8F1010F09D02168300A086173
:101350003A464946204600F013F90028E7D12068B4
:1013600005610020CCE700000200010070B51646C0
:101370000D4604461EE02046FFF70FFF08B101208E
:1013800070BD681C16D0FFF795F8801BA84200D8E6
:1013900085B920684069C04340070BD5002044F858
:1013A000300F20216173A073216941F02001216178
:1013B0002073E4E720684069C0434007DBD4002085
:1013C00070BD00002DE9F047984617460D460446CB
:1013D000C1F30746DDF820902AE000BFB8F1FF3FD7
:1013E00026D0FFF767F8A0EB0901414502D8B8F114
:1013F000000F1DD12068012E16D0806925EA00005B
:101400000004000C12D00020B84211D1002044F892
:10141000300F20216173A073216941F02001216107
:1014200020730120BDE8F0874069E7E70120EBE782
:101430002068012E0AD0806925EA00000004000C13
:1014400006D00020B842C9D00020EBE74069F3E79E
:101450000120F7E72DE9F047984616460D46044669
:101460004FF000094FF0200AC1F3074723E020683E
:101470004069C043400515D42068016841F40071FB
:10148000016021686FF480604861C4F8309084F88E
:101490003DA084F83E90216C41F00401216484F861
:1014A0003C9021E0701C06D0FFF704F8A0EB080088
:1014B000B04203D816B1012F1FD021E02068012FC0
:1014C00015D0806925EA00000004000C18D000BF88
:1014D00044F8309F84F80DA084F80E90216941F003
:1014E0002001216184F80C900120BDE8F08740695B
:1014F00025EA00000004000CEAD12068406901E000
:101500002068806925EA00000004000CAFD1ECE7F8
:101510002DE9F041002590460E460446202728E09C
:101520004069C043C0060CD454F8301B6FF0100063
:10153000486144F810596777A577206A20622577BB
:1015400014E0FEF7B7FFA0EB0800B04200D886B960
:1015500020684069C04340060BD544F8305F67738C
:10156000A573206940F02000206125730120BDE8AB
:10157000F08120684169C9434906D1D40020F6E7CB
:1015800070B516460D4604461EE02046FFF705FEE0
:1015900008B1012070BD681C16D0FEF78BFF801BC0
:1015A000A84200D885B920684069C04300060BD521
:1015B000002044F8300F20216173A073216941F0AD
:1015C000200121612073E4E720684069C0430006E0
:1015D000DBD4002070BD000070B586B000241C482C
:1015E0000094019402940394816941F01001816197
:1015F000816901F010010491816941F0200181614C
:10160000816901F020010491816941F00401816147
:10161000816901F004010491816941F0080181614F
:1016200080690C4E00F008004FF400550490002231
:1016300029463046FEF738FF01200095CDE9010428
:101640000220039069463046FEF736FE06B070BDB4
:101650000010024000100140FEE7FEE770477047AF
:10166000FFF79CBA30B58FB028216846FEF7ACFD75
:1016700014210AA8FEF7A8FD01252804CDE9005091
:10168000002407946846FFF7E3FB08B172B6FEE753
:101690000F200A90CDE90B540D9400210AA80E9456
:1016A000FFF706FB002801D072B6FEE70FB030BD91
:1016B0007047FEE7490050EAC12018BF04204A0DD8
:1016C00018BF40F0010040F2FF72B2EB515F08BF5B
:1016D00040F00200012808BF052070470907090EE5
:1016E000002804DB00F1E02080F80014704700F0CF
:1016F0000F0000F1E02080F8141D70472DE9F04143
:101700004F1E00EBC7010446D1E9000115461E46F5
:1017100037F006020DD02A46334600F0D1FD7F1E79
:1017200004EBC703D3E9002300F07CFB37F006028B
:10173000F1D1022F25D0042F13D0062F18BFBDE8FA
:10174000F0812A46334600F0BBFDD4E90A2300F0BD
:1017500069FB2A46334600F0B3FDD4E9082300F0C4
:1017600061FB2A46334600F0ABFDD4E9062300F0C6
:1017700059FB2A46334600F0A3FDD4E9042300F0C8
:1017800051FB2A46334600F09BFDD4E9022300F0CA
:1017900049FB2A46334600F093FDD4E90023BDE817
:1017A000F04100F03FBB012201F055BA024A00208F
:1017B000110701F050BA000001FDFFFF2DE9F84FBD
:1017C00004460D4621F0004000917349814211DC2E
:1017D0007249884201DC06D12CB120462946BDE879
:1017E000F84FFFF7E0BF6E48002DCCBF6D496E4942
:1017F000BDE8F88F6D49814211DD6D498142D8BF46
:101800004FF0FF366DDD20462946FFF753FF0428D1
:1018100008BFFFF7CBFF20462946BDE8F88F654992
:10182000654F25F00045814233DD6449814219DD71
:10183000002632464FF080432046294600F0F2FA57
:1018400080468A4601222046294601F004FA0022F9
:101850003B4600F03FFE4246534600F093FB0446F1
:101860000D463EE001260022BA463B462046294668
:1018700000F0D8FA80460F460022534620462946FB
:1018800000F028FE42463B4600F07CFB04460D4635
:1018900027E04B4981421BDDDFF828A10226002208
:1018A00053462046294600F00BFD00223B4600F03F
:1018B000B9FA80460F46002253462046294600F0DA
:1018C00009FE42463B4600F05DFB04460D4608E03B
:1018D000032622462B4600203B4900F053FB0446DA
:1018E0000D4622462B461046194600F0E9FC8B4671
:1018F000824602460B4600F0E3FC074602463348A8
:1019000088460B4606217844FFF7F8FE52465B46B0
:1019100000F0D6FC82462E488B463A4643460521C7
:101920007844FFF7EBFE3A46434600F0C9FC024616
:101930000B46002E504659460CDA00F073FA224648
:101940002B4600F0BDFC01B022462B46BDE8F04F0F
:1019500000F0B4BD00F066FA22462B4600F0B0FC61
:101960001C4A7A4402EBC603D3E9002300F0B2FD1F
:1019700022462B4600F0AEFD174A7A4402EBC6031E
:10198000D3E9002300F09AFD009A002AB8BF81F045
:101990000041BDE8F88F0000000010440000F07F17
:1019A000182D4454FB21F93FFB21F9BF0000DC3F17
:1019B0000000203E0000F33F0000F03F0000E63F43
:1019C000008003400000F83F0000F0BF6E140000EC
:1019D0002C140000CA1300009213000070B50D4CC7
:1019E000A169084600F0C4FF61690546084600F099
:1019F000BFFF294600F084FE0146206900F0E2FEA8
:101A000000F052FEFFF7DAFE00F0DAF980F0004055
:101A100070BD0000140000202DE9F0474FF00008D1
:101A200007464646C1464546174C15E000F02EF8DD
:101A30004046216900F064FE80463046616900F04E
:101A40005FFE06464846A16900F05AFE8146012025
:101A5000FEF720FC6D1CEDB2BD42E7D3384600F026
:101A600073FF05462946404600F0ACFEE06129467A
:101A7000304600F0A7FE20622946484600F0A2FE4C
:101A80006062BDE8F087000014000020F0B585B06A
:101A90000020039004906422062103A88DE807002B
:101AA0001E4C01233B22D021E068FEF783FE9DF807
:101AB0000C009DF80D10000200B2084320809DF834
:101AC0000E1009020EB29DF80F100E4366809DF8AD
:101AD000101009020DB29DF811100D43A58000F001
:101AE000D8FB6FF00D073A4601F0B5F800F068F941
:101AF0002061304600F0CDFB3A4601F0ACF800F032
:101B00005FF96061284600F0C4FB3A4601F0A3F893
:101B100000F056F9A06105B0F0BD000014000020EF
:101B2000FFF744F8FFF79EFDFFF756FD1B481A49E3
:101B30004FF4804201601A49416000218160C0E990
:101B4000031241618161C1610162FEF7B9FC08B114
:101B500072B6FEE7114800F02DF8C820FFF75CFFD1
:101B6000104D114E114F124C00F0B4F800F050F827
:101B7000FFF734FF00F098FD2A46334600F002FAE2
:101B800000223B4600F09CFB00F054FB2070C82074
:101B9000FEF780FBE8E70000005400404C00002006
:101BA000A08601001F85EB51B81E094000806640E9
:101BB0000000002070B51449C8230522C860D02158
:101BC000FEF742FD68B1114E31244FF4005529460D
:101BD0003046FEF761FC1420FEF75CFB641EE4B2A5
:101BE000F5D200F0C5F80721192000F0D7F8002140
:101BF0001B2000F0D3F800211C2000F0CFF8BDE836
:101C000070406420FEF746BB140000200010014025
:101C10002DE9F04186B00020039004906422062153
:101C200003A88DE80700264C01233B22D021E06861
:101C3000FEF7C0FD9DF80C009DF80D10000200B2EB
:101C4000084320809DF80E1009020EB29DF80F1077
:101C50000E4366809DF8101009020DB29DF8111018
:101C60000D43A58000F015FB6FF00D073A4600F01C
:101C7000F2FFDFF85080144B424600F02BFC00F0DE
:101C80009FF82061304600F004FB3A4600F0E3FF85
:101C900042460E4B00F0C6F800F092F8606128460C
:101CA00000F0F7FA3A4600F0D6FF4246084B00F043
:101CB00011FC00F085F8A06106B0BDE8F0810000DD
:101CC000140000207B14AE47E17AA43FE17A843F00
:101CD000E17AB43FF0B585B000200390049064220F
:101CE000062103A88DE807001F4C01234322D021C1
:101CF000E068FEF75FFD9DF80C009DF80D100002F6
:101D000000B20843E0809DF80E1009020EB29DF863
:101D10000F100E4326819DF8101009020DB29DF898
:101D200011100D43658100F0B4FA104F00223B46BC
:101D300000F028F900F044F8A062304600F0A9FA5B
:101D400000223B4600F01EF900F03AF8E062284617
:101D500000F09FFA00223B4600F014F900F030F842
:101D6000206305B0F0BD000014000020006060405A
:101D700010B580216B2000F011F86420FEF78AFA7C
:101D80000721682000F00AF86420FEF783FA00219A
:101D9000BDE810406B2000F001B8000003B583B02F
:101DA0006423012204A98DE80E001346024603486D
:101DB000D021C068FEF72CFE05B000BD1400002045
:101DC00021F00042A2F16052B2F5801F01F0004301
:101DD00028BFD2F17F6C0BD95FEA001C43EAC20234
:101DE00042EB507018BF704728BF20F001007047C9
:101DF000B2F5801FBCBF184670474FEA410C1CF576
:101E0000001F02D2084600F07ABE70B500F002FB57
:101E100000000089FFF7F6BF4FF00040A0F58000FA
:101E20007047000010B591EA030F48BF83F00043EC
:101E300000F15883841A71EB030C05D2121943EB9D
:101E40000C03001B61EB0C01DFF824E14FEA115495
:101E5000A4EB135C1EEA430F18BF9EEA445F73D0E5
:101E600023EA0E03DCF1200E21EA045143F480132F
:101E700032D322FA0CFE10EB0E0023FA0CFE41EBDB
:101E80000E01CCF1200E03FA0EFE10EB0E0051F104
:101E90000001B1F5801FCCF1200E32D201EB0451CC
:101EA00012FA0EF2BDE8104058BF7047401C38BF10
:101EB0005FEA420218BF7047002814BF20F00100FB
:101EC00041F100014FEA410313F5001F38BF70478D
:101ED000A1F1C04100F0ECBA012A43EB0302ACF1DE
:101EE000200CDCF11F0E32BF4FF0000E23FA0CF372
:101EF00010EB030041EB0451B4EB115FD0D0A1EB28
:101F0000045101F5801149085FEA300001EB0451EA
:101F10000ED350F1000038BF12FA0EFE08D1BDE812
:101F20001040C9E7401C38BF5FEA4202CAD1C3E78C
:101F3000BDE810404FEA410313F5001F38BF70475A
:101F4000A1F1C04100F0B4BA9EEA445F08D011EAA2
:101F50005E0FBDE8104004BF01F000410020704753
:101F6000BDE8104070B500F055FA00BF64FBBE3EFE
:101F70000000E0FF02494FF0000000F03ABE00BF51
:101F80000000F87F2DE9C04130B4DFF8A0C23CEA80
:101F9000111418BF3CEA131400F0EC8081EA030529
:101FA0001CEA111444EAD57418BF1CEA131500F09A
:101FB000C780A4EB05044FF0004545EAC12145EA7E
:101FC000C32341EA505143EA525304F17F749942CA
:101FD00004F500344FEAC0204FEAC22208BF904205
:101FE00000F09C804FEA13650FF24016765D4FEAD1
:101FF000134506FB05F7C7F1807706FB07F74FEAA5
:10200000D737A7FB03687642C8F58038A7FB06CE12
:1020100038BFA8F1010807FB08E64FF0000EA6FB49
:10202000028CE6FB03CEDCF1000CCEF1004E38BF93
:10203000AEF1010EA6FB0C584FF000074FF0000563
:10204000E6FB0E87A1FB08C6A0FB07CE16EB0E062B
:1020500045F10005E1FB076515F1E04E7EBFA4F5F3
:1020600080345FEA46066D4116F1800745F10005B0
:102070004FEA17274FEA066647EA0567A6F1DE46EC
:10208000B6F1805F4FEA15251FD9384624F0010CC0
:1020900005EBC471BCF1FE6F01EB0C1102D8F0BC72
:1020A000BDE8008124425CBF01F5801E9EEAC47F2A
:1020B00002D4F0BCBDE80081244238D4F0BCA1F1C8
:1020C000C041BDE8004100F0F3B94FEAD22242EA34
:1020D00043524FEAD323A7FB02864FEAD02040EABF
:1020E000415007FB03661EEA0E0F4FEAD12105FBA4
:1020F000026658BFA6EB0056B6EB00564FEA520EEA
:102100004EEAC37E18EB0E0E56EB530EBDD518EB00
:1021100002085E417F1C55F10005B6E74FF48015BB
:102120004FF000074FF000064FF00008ADE7F0BC9D
:102130004FF0000001F1C04101F00041BDE8008115
:1021400011EA0C1F0CEA131500D00CE013EA0C1F67
:1021500000F025804FF00000F0BC81EA030101F09F
:102160000041BDE80081F0BCBDE8004181EA030107
:1021700000F09EB9F0BCBDE8004170B500F04AF92E
:10218000097EFC3E00F007B881EA03014FF0000031
:1021900001F00041704781EA030100F089B9F0BC09
:1021A000BDE800414FF0000021497047FFFDFBF9F9
:1021B000F7F5F4F2F0EEEDEBE9E8E6E4E3E1E0DE7A
:1021C000DDDBDAD8D7D5D4D3D1D0CFCDCCCBCAC8EC
:1021D000C7C6C5C4C2C1C0BFBEBDBCBBBAB9B8B713
:1021E000B6B5B4B3B2B1B0AFAEADACABAAA9A8A806
:1021F000A7A6A5A4A3A3A2A1A09F9F9E9D9C9C9BD4
:102200009A9999989797969595949393929191907E
:102210008F8F8E8E8D8C8C8B8B8A8989888887870F
:102220008685858484838382828181800000FF0784
:102230000000F87F4FEA41034FEA5353A3F5806350
:10224000D3F11E03C8BFD3F1210C0CDD4FF00042C7
:1022500042EAC12242EA505232FA03FC8CEAE17CA3
:10226000ACEBE1707047102BC4BF0020704703F542
:10227000787CBCF1FF3F04D06FF0004282EA21007D
:10228000704770B500F0C6F849922480002070476E
:10229000F2E710F0004248BF4042B0FA80F310FA73
:1022A00003F10AD0C3F11D0303F580634FEA4150E7
:1022B00002EB035202EBD12170474FF00000704750
:1022C000DFF848C170B51CEA111E1EBF1CEA1315C9
:1022D0009EEA0C0F95EA0C0F00F06F8081EA030470
:1022E00023EA4C134EEAD47E21EA4C1141F48011CA
:1022F00043F48013AE44A1FB024CA0FB0365AEF196
:102300007F7E361955EB0C05A1FB034C4CF1000305
:10231000A0FB021C16EB0C06654153F100030942B9
:1023200018BF46F0010613F4007F0BD14FEA0331CA
:102330004FEA0530340341EA155140EA16506FF078
:1023400003020AE04FEAC3214FEAC520F40241EA42
:10235000555140EA56506FF0020202EB2E4201EB5B
:10236000025585EACE710AD05FEA440C18BF24F00A
:10237000004450F1000041F1000120EAD47040F225
:10238000FE7C624500D270BDA84214BF4FF080446D
:102390004FF04044002E08BF0024BEF1806FA8BF5C
:1023A000A1F1C041BDE8704080F282804FF0000092
:1023B00001F1C04101F0004170479EEA0C0F0CEAA8
:1023C000131518BF95EA0C0F06D04FF0000081EAF4
:1023D000030E0EF0004170BD00F01CF88900013EB4
:1023E00000F007B800F009B84FEA430C5FEA5C5C04
:1023F00008D081EA030100F05BB84FEA410C5FEAC4
:102400005C5CF6D14FF00000014970470000FF0707
:102410000000F87F0EF1020E2EF0030E5EF8046B42
:10242000364205D4012A43EB030515F5001F12D8E7
:10243000012841EB010C1CF5001F0CD80ED14FEA0E
:10244000D17C15F5001F0CEB4C0C0CF1020C08BFF5
:102450004CEBD37C04E04FF0080C01E04FEAD37C56
:102460000CEB4C0526FA05F606F00706B6F1040C4F
:1024700006D20EEB860CBDE870404CF0010C6047B4
:10248000DFE80CF0090B02024FF000414FF00000B2
:10249000A1F5002170BD19461046012851EB010439
:1024A00018BFD4F5001484BF002001F0004170BDB6
:1024B0000808A0F500114FEA3101704791EA030FB7
:1024C00010B581F000413FF5B5AC83F0004300F05A
:1024D00009B8000010B591EA030F48BF83F000432C
:1024E0003FF5A8AC841A71EB030C07D212198CF0DB
:1024F000004C43EB0C03001B61EB0C01DFF8A4E183
:102500004FEA1154A4EB135C1EEA430F18BF9EEA76
:10251000445F00F0B08023EA6E03524221EA045186
:10252000C3EB6E0338BF5B1EDCF1200E25D322FA0D
:102530000CFE10EB0E0043FA0CFE41EB0E01CCF149
:10254000200E03FA0EFE10EB0E0051F10001CCF14B
:10255000200E29D412FA0EF201EB0451BDE810400E
:1025600058BF7047401C1CBFB2F1004F7047002895
:102570000CBF491C20F00100704712EB020E43EB28
:10258000030218BF4FF0010E4EEA4202ACF1200CDC
:10259000DCF11E0E54D943FA0CFE10EB0E0051F183
:1025A000FF31CCF11E0ED5D50EF1010E12FA0EFE42
:1025B000404141EB010101EB445C5FEA5C5C10D9F6
:1025C00010EBDE7001EB045138BFBEF1004FBDE8E7
:1025D000104018BF704700280CBF491C20F00100B4
:1025E000704730D24FEAD42C11F5001124F4006466
:1025F0001BD0B1FA81F20B3AA41AA41ED2F1200327
:10260000914030FA03F31943904001EBCC71002C58
:1026100001EB0451BDE81040A8BF704701F1C04173
:102620004FF0000001F000417047B0FA80F310FA5B
:1026300003F100D110BDE41A173C4805C90AE4E7CC
:1026400001EB045110BD491001EB0451BDE81040ED
:102650004FEA300002E04FF0000170474A0008BF27
:102660000042F8D0B2F5001F28BF704701F00041CA
:102670004FF0000070479EEA445F07D011EA5E0FFA
:10268000BDE8104004BF002100207047BDE81040A5
:1026900070B5FFF7BFFE00BF40DFF63E83F000419C
:1026A000104670470000E0FF43004FEAD30C4FEAAA
:1026B0003C0C43401FBF40070CF1605113F0FE4F2C
:1026C00070471CF0006F03D100200CF000417047F0
:1026D0000CF0004343EA507010B540EACC0000F023
:1026E000C8F900BF000000924FEA0001FFF7E0BE0A
:1026F0004FF000414FF00000A1F5002170470000AD
:1027000090EA010F48BF81F0004100F10482421AB3
:102710003CBF801A89184FEAD0524FF07F4C1CEA18
:10272000410FA2EBD15318BF9CEA026F00F03B802F
:102730004FF0004C4CEA00204CEA012121FA03FC46
:1027400010EB0C0C1ED202F1FF325FEA1C2040EBB2
:10275000C25038BF70471CF07F0F4FEA400C18BFC3
:10276000BCF17F4F38BF7047C3F12003994008BFC9
:1027700020F00100BCF17F4F38BF7047A0F1C0408E
:1027800000F0BDB94FEA3C00000A40EBC25028BF40
:102790001CF0FF0F4FEA400CE6D018BFBCF17F4F92
:1027A00038BF7047EAE79CEA026F05D010EA5C0F79
:1027B00008BF00F00040704710B500F05AF900BFA4
:1027C00064FBBE3E4FF47F0C1CEAD0121EBF1CEA15
:1027D000D11392EA0C0F93EA0C0F00F0858090EA77
:1027E000010F48BF42F4807240F4000C41F4000035
:1027F0002CF07F4120F07F4000B58142A2EB030224
:102800000FF2081CACEB504EC0F100009EF800E047
:102810004FEA4E0E00FB0EFC38BF49004FEA2C1C5D
:1028200002F5FA020CFB0EF34FEACE1E4FEA112C12
:102830004FEAC1210EEB635E42EB22420EFB0CFC21
:102840004FEA1C5300FB03114FEA112C4FEA0131F0
:102850000EFB0CFC4FEADC4C00FB0C11C14228BF04
:1028600009184CEB03335DF804EB10EB410143EB2B
:10287000C250B2F57C0F38BF704729D512F0F00F67
:102880001CBF00F1C04000F000407047008182830F
:102890008485868788898B8C8D8E8F91929395966F
:1028A00097999A9C9D9FA0A2A3A5A7A8AAACAEB0F9
:1028B000B2B3B5B7B9BCBEC0C2C5C7C9CCCED1D4FE
:1028C000D7D9DCDFE2E6E9ECF0F3F7FAFE0000002E
:1028D0004FEA400C0CF1807CBCF17E4F28BF704762
:1028E000B0F1C04000F00BB990EA010F0CEAD1132F
:1028F00048BF42F48072624538BF634507D213F483
:102900007F0F16D080EA010000F00040704710B53C
:1029100000F0AFF8097EFC3E00F005B880EA010047
:1029200000F00040704780EA010000F0004000F035
:10293000E6B812F47F0F04BF0248704780EA010036
:1029400000F0DDB80000C07FB0FA80F310FA03F2A7
:10295000C3F19D030AD0D90501EB1220530638BFFD
:10296000704700F1010008BF20F00100704700002F
:102970004FF47F0C1CEAD0121EBF1CEAD11392EA5E
:102980000C0F93EA0C0F00F0478090EA010F48BF4C
:1029900042F480724FF0004C4CEA00204CEA0121D6
:1029A00002EB0302A0FB0113A2F50002002918BFED
:1029B00043F001035B0028BF4FEA330342EB22429E
:1029C0005FEA132C4CEBC2502EBFBCEB436FB2F549
:1029D0007C0F70474FEA036CBCF1004F08BF20F03A
:1029E0000100B2F57C0F38BF70470BD582F0FF02B3
:1029F00012F5803FC8BF704700F1C040D8BF00F05B
:102A00000040704700F5000C5FEA4C0C48BF70476F
:102A1000B0F1C04000F073B890EA010F0CEAD11396
:102A200048BF42F48072624538BF634504D280EAF1
:102A3000010000F00040704710B500F01AF800BF28
:102A40008900013E00F007B800F009B85FEA410CC8
:102A50005FEA1C6C08D080EA010000F050B85FEA21
:102A6000400C5FEA1C6CF6D14FF00040A0F58000EE
:102A700070470EF1020E2EF0030E5EF8044B244256
:102A800004D44FEA4102B2F17F4F11D84FEA40031C
:102A9000B3F17F4F0CD80ED14FEAD07CB2F17F4F0B
:102AA0000CEB4C0C0CF1020C08BF4CEBD17C04E09D
:102AB0004FF0080C01E04FEAD17C0CEB4C0324FAF8
:102AC00003F404F00704B4F1040C06D20EEB840CFA
:102AD000BDE810404CF0010C6047DFE80CF007083F
:102AE00002024FF00040A0F5800010BD08464200F1
:102AF00018BFD2F1807288BF00F0004010BDFF21E6
:102B000041EAD050C005704790EA010F48BF81F0FC
:102B100000413FF5FCAD421A04D882F00042A0EB20
:102B2000020011444FEAD0524FF07F4C1CEA410F93
:102B3000A2EBD15318BF9CEA026F4AD04FF0004C71
:102B40004CEA00204CEA012121FA03FCB0EB0C0C0A
:102B50000FD412F0FE0F36D05FEA4C001DD50012E4
:102B600040EBC25038BF70471CF03F0F18BF704792
:102B70000BE0A2F101025FEA1C2040EBC25038BF1B
:102B800070471CF07F0F18BF7047C3F120039940B6
:102B900014BF401E20F00100704780084FEA122346
:102BA00008BF7047B0FA80FCA2EB0C02CCF1280CF5
:102BB00060FA0CF093EA122F04BF00EBC25070478A
:102BC0004FEAC3707047130A5FEADC1008BF704712
:102BD000F6E79CEA026F04D010EA5C0F08BF002001
:102BE000704710B5FFF745FF40DFF63E81F000402B
:102BF00070470CF00F03092B08BF082000F0598024
:102C00000A2B0BD0082B18BF704708BF1CF0400FD1
:102C10000AD04FF000004FF0000170471CF0400F49
:102C200018BF4FF0004070471CF0100F08D020F084
:102C3000704300F07F4242EAD3014FEA437070478D
:102C400000F0604021F07F4242EA000201F07F4044
:102C500040EA727070474FF0FF0C4CF4E06C1CEAD5
:102C600011531CBF9CEA030C9445C2BFDA4201EB2E
:102C700002517047002B0DD0BCF1000F0FD0002A7D
:102C800001F00041A4BF41F0E04141F07F614FF00D
:102C90000000704701F000414FF00000704750EA1B
:102CA00001334FF09B0C18BF4CF0806C7FF462A98D
:102CB00070471CF4801F11D01CF4E02F03D06FEA82
:102CC000CC31490070474FF04050EFF3008222F0C2
:102CD000704242EA000282F3008870474FF0000021
:102CE0007047010202030405060708090A0B0C0DD0
:102CF0000E0F10100000000000000000010203048D
:102D0000060708090000000001020304000000009B
:102D10004FBB610567ACDD3F182D4454FB21E93FF3
:102D20009BF681D20B73EF3F182D4454FB21F93FE2
:102D3000E2652F227F2B7A3C075C143326A6813C68
:102D4000BDCBF07A8807703C075C143326A6913C13
:102D5000C4EB98999999C9BF711623FEC671BCBF7F
:102D60006D9A74AFF2B0B3BF9AFDDE522DDEADBFE7
:102D70002F6C6A2C44B4A2BF0D5555555555D53FFF
:102D8000FF8300922449C23F6E204CC5CD45B73F1A
:102D9000513DD0A0660DB13FEB0D76244B7BA93F92
:102DA00011DA22E33AAD903FC82D00080000002060
:102DB0004C00000028010008142E00084C000020E0
:102DC000B4060000440100080000000001000000FB
:102DD000100000000000000000127A000000000057
:102DE00000000000000000000000000000000000E3
:102DF00000000000000000000000000000000000D3
:102E000000000000000000000000000000000000C2
:042E100000000000BE
:04000005080000ED02
:00000001FF
