:020000040800F2
:10000000C806002089010008571100080D0E0008DD
:1000100055110008CF020008AF11000800000000D1
:100020000000000000000000000000005B1100085C
:10003000D102000800000000591100085D110008FD
:10004000A3010008A3010008A3010008A301000800
:10005000A3010008A3010008A3010008A3010008F0
:10006000A3010008A3010008A3010008A3010008E0
:10007000A3010008A3010008A3010008A3010008D0
:10008000A3010008A3010008A3010008A3010008C0
:10009000A3010008A3010008A3010008A3010008B0
:1000A000A3010008A3010008A3010008A3010008A0
:1000B000A3010008A3010008A3010008A301000890
:1000C000A3010008A3010008A3010008A301000880
:1000D000A3010008A3010008A3010008A301000870
:1000E000A3010008A3010008A301000800F002F822
:1000F00000F03AF80AA090E8000C82448344AAF188
:100100000107DA4501D100F02FF8AFF2090EBAE885
:100110000F0013F0010F18BFFB1A43F0010318473B
:10012000DC120000FC120000103A24BF78C878C12D
:10013000FAD8520724BF30C830C144BF04680C60ED
:10014000704700000023002400250026103A28BF35
:1001500078C1FBD8520728BF30C148BF0B60704739
:100160001FB51FBD10B510BD00F077F81146FFF7A1
:10017000F7FF01F0EBF800F095F803B4FFF7F2FF9A
:1001800003BC00F09DF8000009488047094800477B
:10019000FEE7FEE7FEE7FEE7FEE7FEE7FEE7FEE737
:1001A000FEE7FEE704480549054A064B7047000094
:1001B000AD110008ED000008C8000020C8060020AE
:1001C000C8020020C802002010B5431C02E010F84D
:1001D000011B71B18107FAD14FF0013202C88C1AAC
:1001E0008C4314EAC211F9D0C01A0A0603D0C01E0B
:1001F00010BDC01A10BD0A0401D0801E10BD090236
:10020000FCD0401E10BD4FF0000200B513469446CE
:100210009646203922BFA0E80C50A0E80C50B1F15E
:100220002001BFF4F7AF090728BFA0E80C5048BF72
:100230000CC05DF804EB890028BF40F8042B08BF10
:10024000704748BF20F8022B11F0804F18BF00F80C
:10025000012B7047704770477047754600F02CF8C7
:10026000AE4605006946534620F00700854618B0A3
:1002700020B5FFF797FFBDE820404FF000064FF094
:1002800000074FF000084FF0000B21F00701AC46CB
:10029000ACE8C009ACE8C009ACE8C009ACE8C009EA
:1002A0008D46704710B50446AFF300802046BDE888
:1002B0001040FFF762BF0000004870476800002050
:1002C00001491820ABBEFEE7260002007047FEE79A
:1002D0007047000070B5044600F00CF90546601C3C
:1002E00002D004480078044400F004F9401BA04206
:1002F000FAD370BD000000202DE9F84FDFF8B89167
:100300000024A9F1040B23460F2709F1040AABF1DD
:10031000040EC9E00125A5402A40AA427DD1674EBE
:10032000D1F804C0ACEB0608B44532D014DCBCF103
:10033000030F3AD009DCBCF1000F2AD0BCF1010F49
:100340001CD0BCF1020F31D11DE0BCF1110F17D050
:10035000BCF1120F2AD119E0B8F5881F19D006DCBC
:10036000B8F5803F15D0B8F5801F1FD111E0B8F562
:10037000001F0ED0B8F5041F18D10AE0CB6815E0B5
:10038000CB681B1D12E0CB6808330FE0CB680C3341
:100390000CE08B682BB1012B4FF0080303D04561B3
:1003A00004E0042302E0056100E00023FF2A01D8F5
:1003B000064601E000F104064FEA840501D9A5F1E3
:1003C0002005D6F8008007FA05FC28EA0C0803FA95
:1003D00005F548EA0508C6F800804D68ED0062D5CD
:1003E000374DAE6946F00106AE61AD6924F00306F3
:1003F00005F001050095334D06EB050CDCF80850BF
:10040000A607360F07FA06F825EA0805DFF8B880D0
:10041000404503D14FF0000817E044E0DFF8AC801E
:10042000404502D14FF001080FE0DFF8A4804045BD
:1004300002D14FF0020808E0DFF89880404502D171
:100440004FF0030801E04FF0040808FA06F848EA04
:100450000508CCF808804D68D9F80060ED024D46DB
:1004600001D5164300E096432E604D68DAF800602F
:10047000AD02554601D5164300E096432E604D6807
:10048000DBF80060AD035D4601D5164300E09643FE
:100490002E604D68DEF80060ED03754601D5164309
:1004A00000E096432E60641C0D682A46E5407FF408
:1004B00031AFBDE8F88F00000804014000001110C2
:1004C000001002400000014000080140000C014003
:1004D0000010014000140140C26821EA02030A40F2
:1004E00043EA0241016170470AB1016170470904A2
:1004F000FBE7000001488068704700000000002012
:1005000070B5040025D094F83D00002520B984F88A
:100510003C50204600F04EF9242084F83D0020682D
:10052000016821F0010101602068016841F4004187
:1005300001602068016821F40041016000F088FA40
:100540004D4A6168914201D84C4900E04C498842CB
:1005500001D2012070BD4B492368B0FBF1F15E6808
:1005600026F03F060E435E606368934206D94FF45F
:10057000967359434FF47A73B1FBF3F12368491C26
:100580001E6A26F03F06314319626168914210D815
:100590004900401EB0FBF1F2521CC2F30B02042AC8
:1005A00001D2042022E0B0FBF1F0401CC0F30B00AC
:1005B0001CE0A268F2B301EBC10303EB0116431E7A
:1005C000B3FBF6F35B1C43F480431B0549D092B3A5
:1005D00001EBC10202EB0111401EB0FBF1F0401C27
:1005E000C0F30B0040F4804040F400402168CA6929
:1005F0004CF6FF739A431043C861D4E907100143D6
:100600002068026822F0C00211430160D4E90301AE
:1006100001432068826848F2FF339A4311438160A6
:10062000D4E9050108432168CA6822F0FF0210439B
:10063000C86001E00EE016E02068016841F00101A9
:1006400001602564202084F83D00256384F83E5035
:10065000002070BD01EB4106431EB3FBF6F35B1CAB
:10066000B3E70120C2E701EB4101401EB0FBF1F00E
:10067000401CC0F30B00B7E7A086010080841E0079
:1006800000093D0040420F002DE9F84F1F469046FB
:100690008A460446DDF82890FFF72CFF054694F8BB
:1006A0003D0020287FD11923012240492046009592
:1006B00000F03EFC002876D194F83C00012872D06E
:1006C000012084F83C0020680168C90703D1016853
:1006D00041F0010101602068016821F400610160BE
:1006E000212084F83D00102084F83E000026266476
:1006F000C4F824806785608D20852D48E0622B46F4
:100700004A465146204600F099FB90B9206841695D
:100710008069009036E02A464946204600F0AEFC4B
:1007200050B1206C042804D12068016841F40071A4
:1007300001600120BDE8F88F606A216800780861D7
:10074000606A401C6062618D491E6185218D491E71
:1007500089B2218522685369DB435B070BD451B111
:1007600000781061606A401C6062608D401E608588
:10077000208D401E20852A464946204600F0ACFBCD
:100780000028CED1208D0028C5D154F83D0B01683A
:1007900041F400710160202004F81E09E6776677B5
:1007A0000020C7E7FFE70220C4E7000002001000B6
:1007B0000000FFFF10B586B0002100910191029169
:1007C000039100680F4988421AD10F4CA06940F08C
:1007D0000800A061A069694600F008000490C020EC
:1007E000009012200190032003900848FFF784FD39
:1007F000E06940F40010E061E06900F4001004904A
:1008000006B010BD0054004000100240000C014032
:10081000024881680278114481607047000000201E
:10082000074810B5016841F010010160032000F095
:1008300067F80F2000F006F800F024F8002010BD43
:100840000020024070B50D4D04464FF47A712878AF
:10085000B1FBF0F00A490968B1FBF0F000F0C2FA10
:1008600048B9102C07D200222146501E00F028F86B
:1008700000206C6070BD012070BD000000000020F1
:100880000C0000200C4808B5816941F0010181612C
:10089000816901F001010091C16941F08051C1619C
:1008A000C06900F0805000900448416821F0E06188
:1008B00041F00071416008BD00100240000001409D
:1008C000F0B40E4B1B680C46C3F30223C3F10705BB
:1008D000042D00D90425191D072901D2002300E0A9
:1008E000DB1E012606FA05F1491E214099409E4073
:1008F000761E16403143F0BC00F05ABC0CED00E00F
:10090000064900F0070208684FF6FF03184040EA66
:100910000220034A10430860704700000CED00E01D
:100920000000FA052DE9F0470F46050061D0434E5F
:10093000306800F00700B84209D2306820F00700A4
:1009400038433060306800F00700B84251D1286861
:100950003B4C810712D5400703D5606840F4E06046
:1009600060602878000703D5606840F460506060DC
:100970006068A96820F0F000084360602878C0072C
:1009800028D06868012810D02168022810D0890773
:1009900000292EDA616821F0030101436160FFF74D
:1009A000A9FD804641F288390DE021688903EFE70F
:1009B0008901EDE7FFF79EFDA0EB0801494502D94B
:1009C0000320BDE8F0876068696800F00C00B0EBB8
:1009D000810FEFD1306800F00700B8420BD93068C2
:1009E00020F0070038433060306800F00700B8425C
:1009F00001D00120E5E72878400705D56068E9685F
:100A000020F4E060084360602878000706D560683D
:100A1000296920F4605040EAC100606000F028F8C5
:100A20006168084AC1F30311515CC8400649086077
:100A300006480068FFF706FF0020C2E700200240DA
:100A400000100240E21300080C0000200400002007
:100A50000448054900684968044AC1F30221515C11
:100A6000C84070470C00002000100240F21300083C
:100A70000F4A516801F00C00042803D0082803D065
:100A80000C4870470C4870470C48C1F38343C903B6
:100A9000C05C0AD55168094AC1F34041921E515CBD
:100AA000054A5043B0FBF1F0704705494843704791
:100AB0000010024000127A000024F400D213000853
:100AC00000093D002DE9F84F040070D02078C04D9A
:100AD000C00749D06868C0F38100012807D0686862
:100AE000C0F38100022809D16868C00306D52868D0
:100AF000800339D560680028E7D035E06068B0F53C
:100B0000803F0BD010B1B0F5A02F11D0286820F491
:100B100080302860286820F4802002E0286840F4B3
:100B200080302860606890B1FFF7E4FC06460AE078
:100B3000286840F480202860F0E700BFFFF7DAFC67
:100B4000801B642873D828688003F7D50CE0FFF772
:100B5000D1FC064605E000BFFFF7CCFC801B6428F3
:100B6000F0D828688003F7D420789A4E80074FF099
:100B700001094FF0000839D5686810F00C0F07D054
:100B80006868C0F38100022809D16868C00306D4F0
:100B90002868800714D52069012808D110E0206951
:100BA000B0B1C6F80090FFF7A5FC074605E00AE1E2
:100BB000FFF7A0FCC01B0228C4D828688007F7D51F
:100BC0002868616920F0F80040EAC10028600DE063
:100BD000C6F80080FFF78EFC074604E0FFF78AFCAA
:100BE000C01B022823D828688007F7D42078000784
:100BF0002CD57948A169D9B1C0F80090FFF77AFCEB
:100C0000074604E0FFF776FCC01B02280FD8686A8D
:100C10008007F7D571484FF4FA510068B0FBF1F046
:100C2000009000BF0098411E0091FAD20EE080E0D3
:100C3000C0F80080FFF75EFC074604E0FFF75AFCAF
:100C4000C01B022875D8686A8007F7D4207840074F
:100C500060D5E8690027C00008D4E86940F08050FA
:100C6000E861E869012700F0805000905C48016865
:100C7000C90513D40168834641F480710160FFF710
:100C800039FC824606E000BFFFF734FCA0EB0A0007
:100C900064284ED8DBF80000C005F5D5E0680128CF
:100CA0000AD008B1052813D0286A20F00100286274
:100CB000286A20F0040002E0286A40F0010028625F
:100CC000E06841F2883B98B1FFF714FC82460BE0E4
:100CD000286A40F004002862EEE700BFFFF70AFC34
:100CE000A0EB0A0159455AD8286A8007F6D50CE0CE
:100CF000FFF700FC824605E0FFF7FCFBA0EB0A01D2
:100D000059454CD8286A8007F6D41FB1E86920F00D
:100D10008050E861E06988B36968C1F38101022904
:100D200044D00228C6F8608004D0FFF7E3FB0446F5
:100D300038E034E0FFF7DEFB074604E0FFF7DAFBBC
:100D4000C01B02282BD828688001F7D4206AB0F590
:100D5000803F05D16868A16820F4003008436860CE
:100D6000D4E908010843696821F4741108436860F4
:100D7000C6F86090FFF7BEFB044606E025E000BF22
:100D8000FFF7B8FB001B022809D828688001F7D5B7
:100D90001BE000BFFFF7AEFB001B022802D90320B7
:100DA000BDE8F88F28688001F4D40EE00128F7D060
:100DB0006868226A00F48031914204D1616A00F4CB
:100DC0007010884201D00120EAE70020E8E7000027
:100DD0000010024000004242800442420C00002009
:100DE0000070004010B5401EB0F1807F01D301209B
:100DF00010BD4FF0E02460610F21601700F0D8F9BA
:100E00000020A06107202061002010BDFEE70168DE
:100E10004A69D24352050FD46FF480624A610021BF
:100E200040F8301F202242738173026942F00402AD
:100E3000026101730120704700207047F8B5044635
:100E4000C06A1E460D461746082807D0012805D05F
:100E500010F5803F02D0206B122804D12068016871
:100E600041F480710160134600224FF001112046C9
:100E7000009600F05DF840B120680068C00502D51A
:100E80004FF4007020640320F8BD2069B0F5804F56
:100E90000ED00620216800EAD51040F0F00008616D
:100EA00033463A460B49204600F08AF878B902E00A
:100EB00005F0FE0000E0E8B221680861054933460C
:100EC0003A46891F204600F07BF80028DCD001203C
:100ED000F8BD00000800010070B516460D46044636
:100EE0001EE02046FFF793FF08B1012070BD681C8B
:100EF00016D0FFF7FFFA801BA84200D885B92068FA
:100F00004069C04340070BD5002044F8300F202132
:100F10006173A073216941F0200121612073E4E72E
:100F200020684069C0434007DBD4002070BD00004A
:100F30002DE9F047984617460D460446C1F307468B
:100F4000DDF820902AE000BFB8F1FF3F26D0FFF780
:100F5000D1FAA0EB0901414502D8B8F1000F1DD12B
:100F60002068012E16D0806925EA00000004000CDC
:100F700012D00020B84211D1002044F8300F2021B7
:100F80006173A073216941F0200121612073012068
:100F9000BDE8F0874069E7E70120EBE72068012E14
:100FA0000AD0806925EA00000004000C06D0002069
:100FB000B842C9D00020EBE74069F3E70120F7E72A
:100FC0002DE9F047984616460D4604464FF00009B5
:100FD0004FF0200AC1F3074723E020684069C0436F
:100FE000400515D42068016841F400710160216852
:100FF0006FF480604861C4F8309084F83DA084F8B4
:101000003E90216C41F00401216484F83C9021E081
:10101000701C06D0FFF76EFAA0EB0800B04203D8B0
:1010200016B1012F1FD021E02068012F15D0806953
:1010300025EA00000004000C18D000BF44F8309FDF
:1010400084F80DA084F80E90216941F020012161FF
:1010500084F80C900120BDE8F087406925EA000083
:101060000004000CEAD12068406901E02068806932
:1010700025EA00000004000CAFD1ECE770B516467D
:101080000D4604461EE02046FFF7C1FE08B10120D0
:1010900070BD681C16D0FFF72DFA801BA84200D83F
:1010A00085B920684069C04300060BD5002044F88C
:1010B000300F20216173A073216941F0200121616B
:1010C0002073E4E720684069C0430006DBD40020B9
:1010D00070BD000070B586B000241C4800940194D7
:1010E00002940394816941F010018161816901F0EA
:1010F00010010491816941F020018161816901F051
:1011000020010491816941F004018161816901F04C
:1011100004010491816941F00801816180690C4EEC
:1011200000F008004FF40055049000222946304694
:10113000FFF7DAF901200095CDE9010402200390C0
:1011400069463046FFF7D8F806B070BD001002407F
:1011500000100140FEE7FEE770477047FFF758BBFD
:1011600030B58FB028216846FFF74DF814210AA842
:10117000FFF749F801252804CDE900500024079421
:101180006846FFF79FFC08B172B6FEE70F200A9091
:10119000CDE90B540D9400210AA80E94FFF7C2FB71
:1011A000002801D072B6FEE70FB030BD7047FEE7F1
:1011B0000907090E002804DB00F1E02080F8001484
:1011C000704700F00F0000F1E02080F8141D704718
:1011D00010B518B101280AD10F2100E00C21002020
:1011E00000F07AF8BDE810400120FFF773B810BD99
:1011F00010B50121002000F06FF8BDE8104002207A
:10120000FFF768B8FFF766B808B507A2401E126876
:10121000C0B200921DF80000084340F08001002099
:1012200000F05AF808BD00000040000010B502218F
:10123000002000F051F8BDE810400220FFF74AB846
:101240001C4910B508603220FFF744F83021002017
:1012500000F042F80120FFF73DF82821002000F0BF
:101260003BF80120FFF736F82821002000F034F881
:101270000120FFF72FF80C21002000F02DF80120AD
:10128000FFF728F8FFF7B4FF0220FFF723F8062145
:10129000002000F021F80120FFF71CF8FFF7C6FF3F
:1012A0000220FFF717F8FFF7A3FFBDE81040022068
:1012B000FFF710B81000002070B50546002405E0C7
:1012C000295D012000F008F8641CE4B22846FEF70E
:1012D0007BFFA042F4D870BD1CB504004FF00000A5
:1012E000019001F0F0024FEA01704FEA10611648D8
:1012F0004FF06403006818D0012C15D142F00D04A2
:101300008DF8044042F009028DF8052041F00D02ED
:101310008DF8062041F009018DF807100093042391
:1013200001AA4E21FFF7B0F91CBD42F00C048DF864
:10133000044042F008028DF8052041F00C028DF8BF
:10134000062041F00801E7E710000020FFF768FAE7
:10135000FFF706FFFFF7BEFE194818494FF4804219
:1013600001601849416000218160C0E903124161B8
:101370008161C1610162FFF7C3F808B172B6FEE78F
:101380000F48FFF75DFF05210120FFF73DFF0EA08D
:10139000FFF792FF4FF47A70FFF734FF0120FFF759
:1013A00017FF0A4D4FF400544FF4FA7621462846B1
:1013B000FFF792F83046FEF78DFFF7E70054004044
:1013C00014000020A086010048555900001001407B
:1013D000010202030405060708090A0B0C0D0E0F93
:1013E00010100000000000000000010203040607C6
:1013F0000809000000000102030400001C1400089A
:10140000000000201400000028010008301400082B
:1014100014000020B4060000440100080100000090
:10142000100000000000000000127A000000000020
:04000005080000ED02
:00000001FF
